:0300000002028673
:0C028600787FE4F6D8FD75811B0202CDE4
:10032500C0F9A4B0999282F880908883C6A1868E80
:100312000608FFFFFFFFFFFF011100020F000001AF
:020322000E00CB
:10000E00E4FBF515F514F513F512D2AFC294D293A5
:10001E00758901758CFC758A67D2A9D28CE50EB4F0
:10002E0001FBE4F50EE5152401F515E43514F51480
:10003E00E43513F513E43512F512E47B0AFAF9F8F8
:10004E00AF15AE14AD13AC12120166AF038F16E4EA
:10005E007B0AFAF9F8AF15AE14AD13AC12120166A5
:10006E00E47B0AFAF9F8120166AF038F17E47B649A
:10007E00FAF9F8AF15AE14AD13AC12120166E47BAB
:10008E000AFAF9F8120166AF038F18E47BE87A03D7
:10009E00F9F8AF15AE14AD13AC12120166E47B0A7B
:1000AE00FAF9F8120166AF038F19E47B107A27F97B
:1000BE00F8AF15AE14AD13AC12120166E47B0AFA5A
:1000CE00F9F8120166AF038F1A7BA07A8679017850
:1000DE0000AF15AE14AD13AC12120166E47B0AFA32
:1000EE00F9F8120166AF038F1B7B0574162BF8E629
:1000FE00700874082BF876FFDBF1EBC39400500305
:10010E0002002B74162BF8E690032593FF74082B30
:0C011E00F8A607EB700302002B1B80DE2C
:03000B000201F8F7
:1001F800C0E0C0D0758CFC758A670510E5107002E8
:10020800050FC394E8E50F94034009750F007510B6
:1002180000750E017580FFE51114601D1460271428
:10022800603114603B1460452405704DC292C29140
:10023800C29005118508808040C292C291D2900573
:10024800118509808033C292D291C2900511850A26
:10025800808026C292D291D2900511850B80801998
:10026800D292C291C2900511850C80800CD292C2A4
:0E02780091D290751100850D80D0D0D0E0326B
:1002920002000EE493A3F8E493A34003F68001F274
:1002A20008DFF48029E493A3F85407240CC8C3336D
:1002B200C4540F4420C8834004F456800146F6DF3C
:1002C200E4800B0102040810204080900312E47EB7
:1002D200019360BCA3FF543F30E509541FFEE49331
:1002E200A360010ECF54C025E060A840B8E493A3F8
:1002F200FAE493A3F8E493A3C8C582C8CAC583CA23
:10030200F0A3C8C582C8CAC583CADFE9DEE780BEDA
:0103240000D8
:10012A0075F008758200EF2FFFEE33FECD33CDCC8C
:10013A0033CCC58233C5829BED9AEC99E58298400F
:10014A000CF582EE9BFEED9AFDEC99FC0FD5F0D6EC
:10015A00E4CEFBE4CDFAE4CCF9A88222B800C1B916
:10016A000059BA002DEC8BF084CFCECDFCE5F0CB54
:10017A00F97818EF2FFFEE33FEED33FDEC33FCEB8D
:10018A0033FB10D703994004EB99FB0FD8E5E4F948
:10019A00FA227818EF2FFFEE33FEED33FDEC33FC35
:1001AA00C933C910D7059BE99A4007EC9BFCE99A29
:1001BA00F90FD8E0E4C9FAE4CCFB2275F010EF2F6E
:1001CA00FFEE33FEED33FDCC33CCC833C810D7076E
:1001DA009BEC9AE899400AED9BFDEC9AFCE899F8A9
:0E01EA000FD5F0DAE4CDFBE4CCFAE4C8F9223C
:00000001FF
