:03000000020222D7
:0C022200787FE4F6D8FD75810A020269BD
:10013200FFFFFFFFFFFFFFFFFF7FFFFFFFFFFF7FCD
:10014200FF3F7F7F7F7F7F3FFF1F3F3F3F3F3F1F3D
:10015200FF0F9F9F9F9F9F0FFF87CFCFCFCFCF874D
:10016200FFC3E7E7E7E7E7C3FFE1737373F3F3E185
:10017200FF7039393979F9F0FF381C1C1C3C7CF8C6
:10018200FF9C0E0E0E1E3E7CFFCE0707070F1F3E82
:10019200FF67030303070F9FFF330101010387CFAB
:1001A200FF9900000081C3E7FFCC808080C0E1F3AB
:1001B200FFE6C0C0C0E0F0F9FF736060607078FCD9
:1001C200FF39303030383C7EFF9C9898989C1E3F17
:1001D200FFCECCCCCCCE0F1FFF6766666667070FDB
:1001E200FF33333333330387FF999999999981C345
:1001F200FFCCCCCCCCCCC0E1FFE6E6E6E6E6E0F014
:10020200FFF3F3F3F3F3F0F8FFF9F9F9F9F9F8FC76
:10021200FFFCFCFCFCFCFCFEFFFEFEFEFEFEFEFF05
:0902C300010800010900010A0014
:1002AE00D2AFC294C293758901758CFC758A67D2E0
:0502BE008CD2A980FEB6
:03000B0002000EE2
:0F000E00C0E0C0F0C083C082C0D075D000C00079
:10001D00758CFC758A6705097580FFE508B40800C5
:10002D004003020110900039F82828730200510294
:10003D0000690200810200980200AF0200C60200B2
:10004D00DD0200F4C292C291C2900508E50A75F076
:10005D0008A42432F582E4340102010AC292C2914D
:10006D00D2900508E50A75F008A42433F582E4342E
:10007D000102010AC292D291C2900508E50A75F0FB
:10008D0008A42434F582E434018072C292D291D254
:10009D00900508E50A75F008A42435F582E43401CD
:1000AD00805BD292C291C2900508E50A75F008A452
:1000BD002436F582E434018044D292C291D2900567
:1000CD0008E50A75F008A42437F582E43401802D83
:1000DD00D292D291C2900508E50A75F008A4243891
:1000ED00F582E434018016D292D291D29075080037
:1000FD00E50A75F008A42439F582E43401F583E4AA
:10010D0093F580E509C394FA400E750900050AE5DB
:08011D000A941E4003750A005C
:0D012500D000D0D0D082D083D0F0D0E03216
:10022E000202AEE493A3F8E493A34003F68001F236
:10023E0008DFF48029E493A3F85407240CC8C333D1
:10024E00C4540F4420C8834004F456800146F6DFA0
:10025E00E4800B01020408102040809002C3E47E6B
:10026E00019360BCA3FF543F30E509541FFEE49395
:10027E00A360010ECF54C025E060A840B8E493A35C
:10028E00FAE493A3F8E493A3C8C582C8CAC583CA87
:10029E00F0A3C8C582C8CAC583CADFE9DEE780BE3F
:0102CC000031
:00000001FF
