:030000000203AD4B
:0C03AD00787FE4F6D8FD75811C0203F493
:10000300C0F9A4B0999282F880908883C6A1868EA5
:06001300FFFFFFFFFFFFED
:100439000613FFFFFFFFFFFF011C00021A00000166
:02044900190098
:1001E200E4F508750C40750B42750A0FF509780D98
:1001F2007C00FD7BFF7A007913FE7F061200EEC2BF
:1002020094D293758910758DFC758B67D28ED2AF9F
:10021200D2ABE519B401FBE4F519E50C24FFF50CAA
:10022200E50B34FFF50BE50A34FFF50AE50934FF67
:10023200F509E47B0AFAF9F8AF0CAE0BAD0AAC098A
:10024200120150AF038F0DE47B0AFAF9F8AF0CAE3E
:100252000BAD0AAC09120150E47B0AFAF9F812015B
:1002620050AF038F0EE47B64FAF9F8AF0CAE0BAD1E
:100272000AAC09120150E47B0AFAF9F8120150AFF4
:10028200038F0FE47BE87A03F9F8AF0CAE0BAD0AEB
:10029200AC09120150E47B0AFAF9F8120150AF03DB
:1002A2008F10E47B107A27F9F8AF0CAE0BAD0AACD5
:1002B20009120150E47B0AFAF9F8120150AF038FD8
:1002C200117BA07A8679017800AF0CAE0BAD0AAC37
:1002D20009120150E47B0AFAF9F8120150AF038FB8
:1002E20012750805740D2508F8E6700A74132508BE
:1002F200F876FFD508EEE508C39400500302021415
:10030200740D2508F8E690000393FF74132508F88E
:0D031200A607E5087003020214150880D943
:03001B0002031FBE
:10031F00C0E0C0D0758DFC758B67051BE51B7002A7
:10032F00051AC394E8E51A94034009751A00751B62
:10033F00007519017580FFE51C14601D14602714EA
:10034F00603114603B1460452405704DC292C29118
:10035F00C290051C8513808040C292C291D2900535
:10036F001C8514808033C292D291C290051C8515D2
:10037F00808026C292D291D290051C85168080195A
:10038F00D292C291C290051C851780800CD292C266
:0E039F0091D290751C00851880D0D0D0E0322D
:1003B9000201E2E493A3F8E493A34003F68001F277
:1003C90008DFF48029E493A3F85407240CC8C33345
:1003D900C4540F4420C8834004F456800146F6DF14
:1003E900E4800B0102040810204080900439E47E67
:1003F900019360BCA3FF543F30E509541FFEE49309
:10040900A360010ECF54C025E060A840B8E493A3CF
:10041900FAE493A3F8E493A3C8C582C8CAC583CAFA
:10042900F0A3C8C582C8CAC583CADFE9DEE780BEB2
:01044B0000B0
:10001E00E709F608DFFA8046E709F208DFFA803EC4
:10002E0088828C83E709F0A3DFFA8032E309F608B1
:10003E00DFFA8078E309F208DFFA807088828C8319
:10004E00E309F0A3DFFA806489828A83E0A3F608CD
:10005E00DFFA805889828A83E0A3F208DFFA804CA7
:10006E0080D280FA80C680D4806980F2803380107E
:10007E0080A680EA809A80A880DA80E280CA8033E7
:10008E0089828A83ECFAE493A3C8C582C8CCC5835F
:10009E00CCF0A3C8C582C8CCC583CCDFE9DEE7802F
:1000AE000D89828A83E493A3F608DFF9ECFAA9F0AE
:1000BE00EDFB2289828A83ECFAE0A3C8C582C8CC04
:1000CE00C583CCF0A3C8C582C8CCC583CCDFEADE1D
:1000DE00E880DB89828A83E493A3F208DFF980CC7F
:1000EE0088F0EF60010E4E60C388F0ED2402B40478
:1000FE000050B9F582EB2402B4040050AF2323451F
:06010E00822390006E73D5
:1001140075F008758200EF2FFFEE33FECD33CDCCA2
:1001240033CCC58233C5829BED9AEC99E582984025
:100134000CF582EE9BFEED9AFDEC99FC0FD5F0D602
:10014400E4CEFBE4CDFAE4CCF9A88222B800C1B92C
:100154000059BA002DEC8BF084CFCECDFCE5F0CB6A
:10016400F97818EF2FFFEE33FEED33FDEC33FCEBA3
:1001740033FB10D703994004EB99FB0FD8E5E4F95E
:10018400FA227818EF2FFFEE33FEED33FDEC33FC4B
:10019400C933C910D7059BE99A4007EC9BFCE99A3F
:1001A400F90FD8E0E4C9FAE4CCFB2275F010EF2F84
:1001B400FFEE33FEED33FDCC33CCC833C810D70784
:1001C4009BEC9AE899400AED9BFDEC9AFCE899F8BF
:0E01D4000FD5F0DAE4CDFBE4CCFAE4C8F92252
:00000001FF
